{"abi":[{"type":"function","name":"FccTokenAddr","inputs":[],"outputs":[{"name":"","type":"address","internalType":"contract IERC20"}],"stateMutability":"view"},{"type":"function","name":"activityAdd","inputs":[{"name":"_businessName","type":"string","internalType":"string"},{"name":"_activityContent","type":"string","internalType":"string"},{"name":"_latitudeLongitude","type":"string","internalType":"string"},{"name":"_activityDeadLine","type":"uint256","internalType":"uint256"},{"name":"_totalDropAmts","type":"uint256","internalType":"uint256"},{"name":"_dropType","type":"uint8","internalType":"uint8"},{"name":"_dropNumber","type":"uint256","internalType":"uint256"},{"name":"_minDropAmt","type":"uint256","internalType":"uint256"},{"name":"_maxDropAmt","type":"uint256","internalType":"uint256"},{"name":"_tokenContractAddr","type":"address","internalType":"address"}],"outputs":[{"name":"_ret","type":"bool","internalType":"bool"},{"name":"_activityId","type":"uint256","internalType":"uint256"}],"stateMutability":"nonpayable"},{"type":"function","name":"activityDropedToAccount","inputs":[{"name":"","type":"uint256","internalType":"uint256"},{"name":"","type":"address","internalType":"address"}],"outputs":[{"name":"","type":"bool","internalType":"bool"}],"stateMutability":"view"},{"type":"function","name":"activityFinish","inputs":[{"name":"_activityId","type":"uint256","internalType":"uint256"}],"outputs":[{"name":"_ret","type":"bool","internalType":"bool"}],"stateMutability":"nonpayable"},{"type":"function","name":"activityInfoArrs","inputs":[{"name":"","type":"uint256","internalType":"uint256"}],"outputs":[{"name":"activityId","type":"uint256","internalType":"uint256"},{"name":"businessAccount","type":"address","internalType":"address"},{"name":"businessName","type":"string","internalType":"string"},{"name":"activityContent","type":"string","internalType":"string"},{"name":"latitudeLongitude","type":"string","internalType":"string"},{"name":"activityCreateTime","type":"uint256","internalType":"uint256"},{"name":"activityDeadLine","type":"uint256","internalType":"uint256"},{"name":"dropType","type":"uint8","internalType":"uint8"},{"name":"dropNumber","type":"uint256","internalType":"uint256"},{"name":"minDropAmt","type":"uint256","internalType":"uint256"},{"name":"maxDropAmt","type":"uint256","internalType":"uint256"},{"name":"tokenContractAddr","type":"address","internalType":"address"}],"stateMutability":"view"},{"type":"function","name":"activityInfoChangedIdx","inputs":[{"name":"","type":"uint256","internalType":"uint256"}],"outputs":[{"name":"","type":"uint256","internalType":"uint256"}],"stateMutability":"view"},{"type":"function","name":"activityInfoExtArrs","inputs":[{"name":"","type":"uint256","internalType":"uint256"}],"outputs":[{"name":"activityId","type":"uint256","internalType":"uint256"},{"name":"alreadyDropAmts","type":"uint256","internalType":"uint256"},{"name":"alreadyDropNumber","type":"uint256","internalType":"uint256"},{"name":"businessMinedAmt","type":"uint256","internalType":"uint256"},{"name":"businessMinedWithdrawedAmt","type":"uint256","internalType":"uint256"},{"name":"activityStatus","type":"uint8","internalType":"uint8"}],"stateMutability":"view"},{"type":"function","name":"addMineAmt","inputs":[{"name":"_addMineAmt","type":"uint256","internalType":"uint256"}],"outputs":[{"name":"_ret","type":"bool","internalType":"bool"}],"stateMutability":"nonpayable"},{"type":"function","name":"drop","inputs":[{"name":"_activityId","type":"uint256","internalType":"uint256"},{"name":"_userAccount","type":"address","internalType":"address"},{"name":"_dropAmt","type":"uint256","internalType":"uint256"}],"outputs":[{"name":"_ret","type":"bool","internalType":"bool"}],"stateMutability":"nonpayable"},{"type":"function","name":"dropInfoArrs","inputs":[{"name":"","type":"uint256","internalType":"uint256"}],"outputs":[{"name":"activityId","type":"uint256","internalType":"uint256"},{"name":"userAccount","type":"address","internalType":"address"},{"name":"dropTime","type":"uint256","internalType":"uint256"},{"name":"dropAmt","type":"uint256","internalType":"uint256"}],"stateMutability":"view"},{"type":"function","name":"initialize","inputs":[{"name":"fcc","type":"address","internalType":"address"}],"outputs":[],"stateMutability":"nonpayable"},{"type":"function","name":"minePercent","inputs":[],"outputs":[{"name":"","type":"uint8","internalType":"uint8"}],"stateMutability":"view"},{"type":"function","name":"minedAmt","inputs":[],"outputs":[{"name":"","type":"uint256","internalType":"uint256"}],"stateMutability":"view"},{"type":"function","name":"owner","inputs":[],"outputs":[{"name":"","type":"address","internalType":"address"}],"stateMutability":"view"},{"type":"function","name":"renounceOwnership","inputs":[],"outputs":[],"stateMutability":"nonpayable"},{"type":"function","name":"setMinePercent","inputs":[{"name":"_minePercent","type":"uint8","internalType":"uint8"}],"outputs":[{"name":"_ret","type":"bool","internalType":"bool"}],"stateMutability":"nonpayable"},{"type":"function","name":"totalMineAmt","inputs":[],"outputs":[{"name":"","type":"uint256","internalType":"uint256"}],"stateMutability":"view"},{"type":"function","name":"transferOwnership","inputs":[{"name":"newOwner","type":"address","internalType":"address"}],"outputs":[],"stateMutability":"nonpayable"},{"type":"event","name":"ActivityAdd","inputs":[{"name":"who","type":"address","indexed":true,"internalType":"address"},{"name":"_activityId","type":"uint256","indexed":false,"internalType":"uint256"},{"name":"_totalDropAmts","type":"uint256","indexed":false,"internalType":"uint256"}],"anonymous":false},{"type":"event","name":"ActivityFinish","inputs":[{"name":"_activityId","type":"uint256","indexed":true,"internalType":"uint256"}],"anonymous":false},{"type":"event","name":"AddMineAmt","inputs":[{"name":"who","type":"address","indexed":true,"internalType":"address"},{"name":"_addMineAmt","type":"uint256","indexed":false,"internalType":"uint256"}],"anonymous":false},{"type":"event","name":"Initialized","inputs":[{"name":"version","type":"uint8","indexed":false,"internalType":"uint8"}],"anonymous":false},{"type":"event","name":"OwnershipTransferred","inputs":[{"name":"previousOwner","type":"address","indexed":true,"internalType":"address"},{"name":"newOwner","type":"address","indexed":true,"internalType":"address"}],"anonymous":false},{"type":"event","name":"SetMinePercent","inputs":[{"name":"minePercent","type":"uint8","indexed":false,"internalType":"uint8"}],"anonymous":false},{"type":"error","name":"AddressEmptyCode","inputs":[{"name":"target","type":"address","internalType":"address"}]},{"type":"error","name":"AddressInsufficientBalance","inputs":[{"name":"account","type":"address","internalType":"address"}]},{"type":"error","name":"FailedInnerCall","inputs":[]},{"type":"error","name":"SafeERC20FailedOperation","inputs":[{"name":"token","type":"address","internalType":"address"}]}],"bytecode":{"object":"0x6080604052609a805460ff1916603217905534801561001d57600080fd5b50611e418061002d6000396000f3fe608060405234801561001057600080fd5b50600436106101165760003560e01c8063a0752825116100a2578063c8c1d78d11610071578063c8c1d78d146102e6578063cbd596c4146102f9578063f2fde38b1461030c578063f7859c281461031f578063fefee0e11461032857600080fd5b8063a075282514610276578063a6d93915146102a1578063ac67fbb6146102c0578063c4d66de8146102d357600080fd5b80634d43959d116100e95780634d43959d146101d3578063715018a61461021657806385a455f51461022057806388e40a5a1461024e5780638da5cb5b1461026557600080fd5b80632a916c201461011b5780633c9152551461015b57806343b22efc1461017e5780634ba1332f146101a8575b600080fd5b61012e610129366004611851565b61033b565b604080519485526001600160a01b0390931660208501529183015260608201526080015b60405180910390f35b61016e610169366004611851565b61037e565b6040519015158152602001610152565b61019161018c366004611935565b610448565b604080519215158352602083019190915201610152565b6097546101bb906001600160a01b031681565b6040516001600160a01b039091168152602001610152565b6101e66101e1366004611851565b6108cf565b604080519687526020870195909552938501929092526060840152608083015260ff1660a082015260c001610152565b61021e610918565b005b61016e61022e366004611a11565b609f60209081526000928352604080842090915290825290205460ff1681565b61025760985481565b604051908152602001610152565b6033546001600160a01b03166101bb565b610289610284366004611851565b61092c565b6040516101529c9b9a99989796959493929190611a8d565b609a546102ae9060ff1681565b60405160ff9091168152602001610152565b61016e6102ce366004611b29565b610b4a565b61021e6102e1366004611b44565b610beb565b61016e6102f4366004611b5f565b610d20565b61016e610307366004611851565b611168565b61021e61031a366004611b44565b611415565b61025760995481565b610257610336366004611851565b61148e565b609e818154811061034b57600080fd5b600091825260209091206004909102018054600182015460028301546003909301549193506001600160a01b0316919084565b60006103886114af565b600082116103d25760405162461bcd60e51b815260206004820152601260248201527126b4b7329020b6b7bab73a1022b93937b91760711b60448201526064015b60405180910390fd5b6103ea336097546001600160a01b0316903085611508565b81609860008282546103fc9190611baa565b909155505060405182815233907f36a36f6d06ab1b164d3fbb904d2e7657b13fc5444f9ac18bc9a7af5aa68683769060200160405180910390a25060016104436001606555565b919050565b6000806104536114af565b8660ff166002148061046857508660ff166001145b6104a75760405162461bcd60e51b815260206004820152601060248201526f223937b8102a3cb8329022b93937b91760811b60448201526064016103c9565b600088116104ec5760405162461bcd60e51b8152602060048201526012602482015271223937b81020b6b7bab73a1022b93937b91760711b60448201526064016103c9565b6104f68685611bbd565b88146105555760405162461bcd60e51b815260206004820152602860248201527f44726f70204e756d626572204e6f74204d65657420546f74616c2044726f702060448201526720b6b7bab73a399760c11b60648201526084016103c9565b61056a6001600160a01b03841633308b611508565b6000604051806101800160405280609b80549050600161058a9190611baa565b8152602001336001600160a01b031681526020018e81526020018d81526020018c81526020014281526020018b81526020018960ff168152602001888152602001878152602001868152602001856001600160a01b03168152509050609b8190806001815401808255809150506001900390600052602060002090600c02016000909190919091506000820151816000015560208201518160010160006101000a8154816001600160a01b0302191690836001600160a01b03160217905550604082015181600201908161065e9190611c5e565b50606082015160038201906106739082611c5e565b50608082015160048201906106889082611c5e565b5060a0820151600582015560c080830151600683015560e083015160078301805460ff191660ff90921691909117905561010083015160088301556101208301516009830155610140830151600a83015561016090920151600b90910180546001600160a01b0319166001600160a01b03909216919091179055604080519182019052609b5460009190819061071f906001611baa565b815260006020808301829052604080840183905260608085018490526080808601859052600160a0968701819052609c8054918201815590955286517faf85b9071dfafeac1409d3f1d19bafc9bc7c37974cde8df0ee6168f0086e539c600690960295860155928601517faf85b9071dfafeac1409d3f1d19bafc9bc7c37974cde8df0ee6168f0086e539d850155908501517faf85b9071dfafeac1409d3f1d19bafc9bc7c37974cde8df0ee6168f0086e539e8401558401517faf85b9071dfafeac1409d3f1d19bafc9bc7c37974cde8df0ee6168f0086e539f8301558301517faf85b9071dfafeac1409d3f1d19bafc9bc7c37974cde8df0ee6168f0086e53a0820155908201517faf85b9071dfafeac1409d3f1d19bafc9bc7c37974cde8df0ee6168f0086e53a1909101805460ff191660ff9092169190911790559050336001600160a01b03167f3506de3288d7be2fbbbc5cccb79a0195aed1511c93003f8e135856a9e021064483600001518c6040516108a6929190918252602082015260400190565b60405180910390a250516001925090506108c06001606555565b9a509a98505050505050505050565b609c81815481106108df57600080fd5b60009182526020909120600690910201805460018201546002830154600384015460048501546005909501549395509193909260ff1686565b61092061157c565b61092a60006115d6565b565b609b818154811061093c57600080fd5b60009182526020909120600c90910201805460018201546002830180549294506001600160a01b03909116929161097290611bd4565b80601f016020809104026020016040519081016040528092919081815260200182805461099e90611bd4565b80156109eb5780601f106109c0576101008083540402835291602001916109eb565b820191906000526020600020905b8154815290600101906020018083116109ce57829003601f168201915b505050505090806003018054610a0090611bd4565b80601f0160208091040260200160405190810160405280929190818152602001828054610a2c90611bd4565b8015610a795780601f10610a4e57610100808354040283529160200191610a79565b820191906000526020600020905b815481529060010190602001808311610a5c57829003601f168201915b505050505090806004018054610a8e90611bd4565b80601f0160208091040260200160405190810160405280929190818152602001828054610aba90611bd4565b8015610b075780601f10610adc57610100808354040283529160200191610b07565b820191906000526020600020905b815481529060010190602001808311610aea57829003601f168201915b5050505060058301546006840154600785015460088601546009870154600a880154600b909801549697949693955060ff9092169390926001600160a01b03168c565b6000610b5461157c565b60648260ff161115610b9e5760405162461bcd60e51b815260206004820152601360248201527226b4b732902832b931b2b73a1022b93937b91760691b60448201526064016103c9565b609a805460ff191660ff84169081179091556040519081527f3b2d1b3b0c360549745cd56590950679dbfca066aea0899c4a5a15cca3adfdf89060200160405180910390a1506001919050565b600054610100900460ff1615808015610c0b5750600054600160ff909116105b80610c255750303b158015610c25575060005460ff166001145b610c885760405162461bcd60e51b815260206004820152602e60248201527f496e697469616c697a61626c653a20636f6e747261637420697320616c72656160448201526d191e481a5b9a5d1a585b1a5e995960921b60648201526084016103c9565b6000805460ff191660011790558015610cab576000805461ff0019166101001790555b610cb3611628565b610cbb61164f565b609780546001600160a01b0319166001600160a01b0384161790558015610d1c576000805461ff0019169055604051600181527f7f26b83ff96e1f2b6a682f133852f6798a09c465da95921460cefb38474024989060200160405180910390a15b5050565b6000610d2a6114af565b6000848152609f602090815260408083206001600160a01b038716845290915290205460ff1615610d905760405162461bcd60e51b815260206004820152601060248201526f2ab9b2b9102430b990223937b832b21760811b60448201526064016103c9565b6000609b610d9f600187611d1e565b81548110610daf57610daf611d31565b600091825260208220600c909102019150609c610dcd600188611d1e565b81548110610ddd57610ddd611d31565b6000918252602090912060056006909202019081015490915060ff16600114610e415760405162461bcd60e51b815260206004820152601660248201527520b1ba34bb34ba3c9029ba30ba3ab99022b93937b91760511b60448201526064016103c9565b60018201546001600160a01b03163314610e8e5760405162461bcd60e51b815260206004820152600e60248201526d2737ba102a34329027bbb732b91760911b60448201526064016103c9565b600782015460ff16600203610efb5781600a01548411158015610eb5575081600901548410155b610ef65760405162461bcd60e51b8152602060048201526012602482015271223937b81020b6b7bab73a1022b93937b91760711b60448201526064016103c9565b610f03565b81600a015493505b8060020154826008015411610f5a5760405162461bcd60e51b815260206004820152601f60248201527f457863656564656420746865206e756d626572206f6620726577617264732e0060448201526064016103c9565b6001810154610f699085611baa565b826008015483600a0154610f7d9190611bbd565b1015610fd75760405162461bcd60e51b8152602060048201526024808201527f5468652072657761726420616d6f756e7420686173206265656e2065786365656044820152633232b21760e11b60648201526084016103c9565b600b820154610ff0906001600160a01b0316868661167f565b6000868152609f602090815260408083206001600160a01b038981168086529184528285208054600160ff19909116811790915583516080810185528c815294850192835242938501938452606085018a8152609e8054808401825590885286517fcfe2a20ff701a1f3e14f63bd70d6c6bc6fba8172ec6d5a505cdab3927c0a9de660049092029182015593517fcfe2a20ff701a1f3e14f63bd70d6c6bc6fba8172ec6d5a505cdab3927c0a9de7850180546001600160a01b031916919094161790925592517fcfe2a20ff701a1f3e14f63bd70d6c6bc6fba8172ec6d5a505cdab3927c0a9de8830155517fcfe2a20ff701a1f3e14f63bd70d6c6bc6fba8172ec6d5a505cdab3927c0a9de9909101558301805491928792611113908490611baa565b909155505060028201805490600061112a83611d47565b90915550609d905061113d600189611d1e565b81546001818101845560009384526020909320015593506111619250611575915050565b9392505050565b60006111726114af565b6000609b611181600185611d1e565b8154811061119157611191611d31565b600091825260208220600c909102019150609c6111af600186611d1e565b815481106111bf576111bf611d31565b906000526020600020906006020190506111d63390565b60018301546001600160a01b039081169116146112265760405162461bcd60e51b815260206004820152600e60248201526d2737ba102a34329027bbb732b91760911b60448201526064016103c9565b600581015460ff166001146112765760405162461bcd60e51b815260206004820152601660248201527520b1ba34bb34ba3c9029ba30ba3ab99022b93937b91760511b60448201526064016103c9565b60058101805460ff1916600217905560018101546008830154600a84015461129e9190611bbd565b11156112e0576112e0338260010154846008015485600a01546112c19190611bbd565b6112cb9190611d1e565b600b8501546001600160a01b0316919061167f565b609a5460ff16158015906113065750600b8201546097546001600160a01b039081169116145b156113bd5760008160020154601461131e9190611bbd565b61133090670de0b6b3a7640000611bbd565b609a54600184015491925060009160649160ff16908410611355578460010154611357565b835b6113619190611bbd565b61136b9190611d60565b90508060995461137b9190611baa565b609854106113ba57808360030181905550806099600082825461139e9190611baa565b90915550506097546113ba906001600160a01b0316338361167f565b50505b609d6113ca600186611d1e565b8154600181018355600092835260208320015560405185917f38f456a137dd5646304c56c89456946ca67dce6874da9aa268339cb049f8177191a26001925050506104436001606555565b61141d61157c565b6001600160a01b0381166114825760405162461bcd60e51b815260206004820152602660248201527f4f776e61626c653a206e6577206f776e657220697320746865207a65726f206160448201526564647265737360d01b60648201526084016103c9565b61148b816115d6565b50565b609d818154811061149e57600080fd5b600091825260209091200154905081565b6002606554036115015760405162461bcd60e51b815260206004820152601f60248201527f5265656e7472616e637947756172643a207265656e7472616e742063616c6c0060448201526064016103c9565b6002606555565b6040516001600160a01b03848116602483015283811660448301526064820183905261156f9186918216906323b872dd906084015b604051602081830303815290604052915060e01b6020820180516001600160e01b0383818316178352505050506116b5565b50505050565b6001606555565b6033546001600160a01b0316331461092a5760405162461bcd60e51b815260206004820181905260248201527f4f776e61626c653a2063616c6c6572206973206e6f7420746865206f776e657260448201526064016103c9565b603380546001600160a01b038381166001600160a01b0319831681179093556040519116919082907f8be0079c531659141344cd1fd0a4f28419497f9722a3daafe3b4186f6b6457e090600090a35050565b600054610100900460ff1661092a5760405162461bcd60e51b81526004016103c990611d82565b600054610100900460ff166116765760405162461bcd60e51b81526004016103c990611d82565b61092a336115d6565b6040516001600160a01b038381166024830152604482018390526116b091859182169063a9059cbb9060640161153d565b505050565b60006116ca6001600160a01b03841683611718565b905080516000141580156116ef5750808060200190518101906116ed9190611dcd565b155b156116b057604051635274afe760e01b81526001600160a01b03841660048201526024016103c9565b60606117268383600061172f565b90505b92915050565b6060814710156117545760405163cd78605960e01b81523060048201526024016103c9565b600080856001600160a01b031684866040516117709190611def565b60006040518083038185875af1925050503d80600081146117ad576040519150601f19603f3d011682016040523d82523d6000602084013e6117b2565b606091505b50915091506117c28683836117cc565b9695505050505050565b6060826117e1576117dc82611828565b611161565b81511580156117f857506001600160a01b0384163b155b1561182157604051639996b31560e01b81526001600160a01b03851660048201526024016103c9565b5080611161565b8051156118385780518082602001fd5b604051630a12f52160e11b815260040160405180910390fd5b60006020828403121561186357600080fd5b5035919050565b634e487b7160e01b600052604160045260246000fd5b600082601f83011261189157600080fd5b813567ffffffffffffffff808211156118ac576118ac61186a565b604051601f8301601f19908116603f011681019082821181831017156118d4576118d461186a565b816040528381528660208588010111156118ed57600080fd5b836020870160208301376000602085830101528094505050505092915050565b803560ff8116811461044357600080fd5b80356001600160a01b038116811461044357600080fd5b6000806000806000806000806000806101408b8d03121561195557600080fd5b8a3567ffffffffffffffff8082111561196d57600080fd5b6119798e838f01611880565b9b5060208d013591508082111561198f57600080fd5b61199b8e838f01611880565b9a5060408d01359150808211156119b157600080fd5b506119be8d828e01611880565b98505060608b0135965060808b013595506119db60a08c0161190d565b945060c08b0135935060e08b013592506101008b01359150611a006101208c0161191e565b90509295989b9194979a5092959850565b60008060408385031215611a2457600080fd5b82359150611a346020840161191e565b90509250929050565b60005b83811015611a58578181015183820152602001611a40565b50506000910152565b60008151808452611a79816020860160208601611a3d565b601f01601f19169290920160200192915050565b8c81526001600160a01b038c8116602083015261018060408301819052600091611ab98483018f611a61565b91508382036060850152611acd828e611a61565b91508382036080850152611ae1828d611a61565b92508a60a08501528960c085015260ff891660e085015287610100850152866101208501528561014085015280851661016085015250509d9c50505050505050505050505050565b600060208284031215611b3b57600080fd5b6117268261190d565b600060208284031215611b5657600080fd5b6117268261191e565b600080600060608486031215611b7457600080fd5b83359250611b846020850161191e565b9150604084013590509250925092565b634e487b7160e01b600052601160045260246000fd5b8082018082111561172957611729611b94565b808202811582820484141761172957611729611b94565b600181811c90821680611be857607f821691505b602082108103611c0857634e487b7160e01b600052602260045260246000fd5b50919050565b601f8211156116b0576000816000526020600020601f850160051c81016020861015611c375750805b601f850160051c820191505b81811015611c5657828155600101611c43565b505050505050565b815167ffffffffffffffff811115611c7857611c7861186a565b611c8c81611c868454611bd4565b84611c0e565b602080601f831160018114611cc15760008415611ca95750858301515b600019600386901b1c1916600185901b178555611c56565b600085815260208120601f198616915b82811015611cf057888601518255948401946001909101908401611cd1565b5085821015611d0e5787850151600019600388901b60f8161c191681555b5050505050600190811b01905550565b8181038181111561172957611729611b94565b634e487b7160e01b600052603260045260246000fd5b600060018201611d5957611d59611b94565b5060010190565b600082611d7d57634e487b7160e01b600052601260045260246000fd5b500490565b6020808252602b908201527f496e697469616c697a61626c653a20636f6e7472616374206973206e6f74206960408201526a6e697469616c697a696e6760a81b606082015260800190565b600060208284031215611ddf57600080fd5b8151801515811461116157600080fd5b60008251611e01818460208701611a3d565b919091019291505056fea26469706673582212201f1f1a550589e16a625601ab2f560acfdbb6a0b6652db8603de557ae4b7391d064736f6c63430008170033","linkReferences":{}},"methodIdentifiers":{"FccTokenAddr()":"4ba1332f","activityAdd(string,string,string,uint256,uint256,uint8,uint256,uint256,uint256,address)":"43b22efc","activityDropedToAccount(uint256,address)":"85a455f5","activityFinish(uint256)":"cbd596c4","activityInfoArrs(uint256)":"a0752825","activityInfoChangedIdx(uint256)":"fefee0e1","activityInfoExtArrs(uint256)":"4d43959d","addMineAmt(uint256)":"3c915255","drop(uint256,address,uint256)":"c8c1d78d","dropInfoArrs(uint256)":"2a916c20","initialize(address)":"c4d66de8","minePercent()":"a6d93915","minedAmt()":"f7859c28","owner()":"8da5cb5b","renounceOwnership()":"715018a6","setMinePercent(uint8)":"ac67fbb6","totalMineAmt()":"88e40a5a","transferOwnership(address)":"f2fde38b"},"id":46}