{"abi":[{"type":"constructor","inputs":[{"name":"_supplyLimit","type":"uint256","internalType":"uint256"},{"name":"_merkleRoot","type":"bytes32","internalType":"bytes32"}],"stateMutability":"nonpayable"},{"type":"function","name":"DEFAULT_ADMIN_ROLE","inputs":[],"outputs":[{"name":"","type":"bytes32","internalType":"bytes32"}],"stateMutability":"view"},{"type":"function","name":"MINTER_ROLE","inputs":[],"outputs":[{"name":"","type":"bytes32","internalType":"bytes32"}],"stateMutability":"view"},{"type":"function","name":"PAUSER_ROLE","inputs":[],"outputs":[{"name":"","type":"bytes32","internalType":"bytes32"}],"stateMutability":"view"},{"type":"function","name":"allowlistMint","inputs":[{"name":"proof","type":"bytes32[]","internalType":"bytes32[]"}],"outputs":[],"stateMutability":"nonpayable"},{"type":"function","name":"allowlistMintActive","inputs":[],"outputs":[{"name":"","type":"bool","internalType":"bool"}],"stateMutability":"view"},{"type":"function","name":"approve","inputs":[{"name":"to","type":"address","internalType":"address"},{"name":"tokenId","type":"uint256","internalType":"uint256"}],"outputs":[],"stateMutability":"payable"},{"type":"function","name":"balanceOf","inputs":[{"name":"owner","type":"address","internalType":"address"}],"outputs":[{"name":"","type":"uint256","internalType":"uint256"}],"stateMutability":"view"},{"type":"function","name":"batchMintRemainingTokens","inputs":[{"name":"receiver","type":"address","internalType":"address"},{"name":"amount","type":"uint256","internalType":"uint256"}],"outputs":[],"stateMutability":"nonpayable"},{"type":"function","name":"burn","inputs":[{"name":"tokenId","type":"uint256","internalType":"uint256"}],"outputs":[],"stateMutability":"nonpayable"},{"type":"function","name":"burnActive","inputs":[],"outputs":[{"name":"","type":"bool","internalType":"bool"}],"stateMutability":"view"},{"type":"function","name":"getApproved","inputs":[{"name":"tokenId","type":"uint256","internalType":"uint256"}],"outputs":[{"name":"","type":"address","internalType":"address"}],"stateMutability":"view"},{"type":"function","name":"getRoleAdmin","inputs":[{"name":"role","type":"bytes32","internalType":"bytes32"}],"outputs":[{"name":"","type":"bytes32","internalType":"bytes32"}],"stateMutability":"view"},{"type":"function","name":"grantRole","inputs":[{"name":"role","type":"bytes32","internalType":"bytes32"},{"name":"account","type":"address","internalType":"address"}],"outputs":[],"stateMutability":"nonpayable"},{"type":"function","name":"hasMinted","inputs":[{"name":"owner","type":"address","internalType":"address"}],"outputs":[{"name":"","type":"bool","internalType":"bool"}],"stateMutability":"view"},{"type":"function","name":"hasRole","inputs":[{"name":"role","type":"bytes32","internalType":"bytes32"},{"name":"account","type":"address","internalType":"address"}],"outputs":[{"name":"","type":"bool","internalType":"bool"}],"stateMutability":"view"},{"type":"function","name":"isApprovedForAll","inputs":[{"name":"owner","type":"address","internalType":"address"},{"name":"operator","type":"address","internalType":"address"}],"outputs":[{"name":"","type":"bool","internalType":"bool"}],"stateMutability":"view"},{"type":"function","name":"merkleRoot","inputs":[],"outputs":[{"name":"","type":"bytes32","internalType":"bytes32"}],"stateMutability":"view"},{"type":"function","name":"name","inputs":[],"outputs":[{"name":"","type":"string","internalType":"string"}],"stateMutability":"view"},{"type":"function","name":"owner","inputs":[],"outputs":[{"name":"","type":"address","internalType":"address"}],"stateMutability":"view"},{"type":"function","name":"ownerOf","inputs":[{"name":"tokenId","type":"uint256","internalType":"uint256"}],"outputs":[{"name":"","type":"address","internalType":"address"}],"stateMutability":"view"},{"type":"function","name":"renounceOwnership","inputs":[],"outputs":[],"stateMutability":"nonpayable"},{"type":"function","name":"renounceRole","inputs":[{"name":"role","type":"bytes32","internalType":"bytes32"},{"name":"callerConfirmation","type":"address","internalType":"address"}],"outputs":[],"stateMutability":"nonpayable"},{"type":"function","name":"revokeRole","inputs":[{"name":"role","type":"bytes32","internalType":"bytes32"},{"name":"account","type":"address","internalType":"address"}],"outputs":[],"stateMutability":"nonpayable"},{"type":"function","name":"safeTransferFrom","inputs":[{"name":"from","type":"address","internalType":"address"},{"name":"to","type":"address","internalType":"address"},{"name":"tokenId","type":"uint256","internalType":"uint256"}],"outputs":[],"stateMutability":"payable"},{"type":"function","name":"safeTransferFrom","inputs":[{"name":"from","type":"address","internalType":"address"},{"name":"to","type":"address","internalType":"address"},{"name":"tokenId","type":"uint256","internalType":"uint256"},{"name":"_data","type":"bytes","internalType":"bytes"}],"outputs":[],"stateMutability":"payable"},{"type":"function","name":"setAllowlistMint","inputs":[{"name":"status","type":"bool","internalType":"bool"}],"outputs":[],"stateMutability":"nonpayable"},{"type":"function","name":"setApprovalForAll","inputs":[{"name":"operator","type":"address","internalType":"address"},{"name":"approved","type":"bool","internalType":"bool"}],"outputs":[],"stateMutability":"nonpayable"},{"type":"function","name":"setBurn","inputs":[{"name":"_burnActive","type":"bool","internalType":"bool"}],"outputs":[],"stateMutability":"nonpayable"},{"type":"function","name":"setMaxSupply","inputs":[{"name":"_supplyLimit","type":"uint256","internalType":"uint256"}],"outputs":[],"stateMutability":"nonpayable"},{"type":"function","name":"setMerkleRoot","inputs":[{"name":"_merkleRoot","type":"bytes32","internalType":"bytes32"}],"outputs":[],"stateMutability":"nonpayable"},{"type":"function","name":"setUriPrefix","inputs":[{"name":"_uriPrefix","type":"string","internalType":"string"}],"outputs":[],"stateMutability":"nonpayable"},{"type":"function","name":"supplyLimit","inputs":[],"outputs":[{"name":"","type":"uint256","internalType":"uint256"}],"stateMutability":"view"},{"type":"function","name":"supportsInterface","inputs":[{"name":"interfaceId","type":"bytes4","internalType":"bytes4"}],"outputs":[{"name":"","type":"bool","internalType":"bool"}],"stateMutability":"view"},{"type":"function","name":"symbol","inputs":[],"outputs":[{"name":"","type":"string","internalType":"string"}],"stateMutability":"view"},{"type":"function","name":"tokenURI","inputs":[{"name":"tokenId","type":"uint256","internalType":"uint256"}],"outputs":[{"name":"","type":"string","internalType":"string"}],"stateMutability":"view"},{"type":"function","name":"totalMinted","inputs":[],"outputs":[{"name":"","type":"uint256","internalType":"uint256"}],"stateMutability":"view"},{"type":"function","name":"totalSupply","inputs":[],"outputs":[{"name":"","type":"uint256","internalType":"uint256"}],"stateMutability":"view"},{"type":"function","name":"transferFrom","inputs":[{"name":"from","type":"address","internalType":"address"},{"name":"to","type":"address","internalType":"address"},{"name":"tokenId","type":"uint256","internalType":"uint256"}],"outputs":[],"stateMutability":"payable"},{"type":"function","name":"transferOwnership","inputs":[{"name":"newOwner","type":"address","internalType":"address"}],"outputs":[],"stateMutability":"nonpayable"},{"type":"function","name":"uriPrefix","inputs":[],"outputs":[{"name":"","type":"string","internalType":"string"}],"stateMutability":"view"},{"type":"event","name":"AllowlistMintSet","inputs":[{"name":"changedBy","type":"address","indexed":true,"internalType":"address"},{"name":"AllowlistMint","type":"bool","indexed":false,"internalType":"bool"}],"anonymous":false},{"type":"event","name":"Approval","inputs":[{"name":"owner","type":"address","indexed":true,"internalType":"address"},{"name":"approved","type":"address","indexed":true,"internalType":"address"},{"name":"tokenId","type":"uint256","indexed":true,"internalType":"uint256"}],"anonymous":false},{"type":"event","name":"ApprovalForAll","inputs":[{"name":"owner","type":"address","indexed":true,"internalType":"address"},{"name":"operator","type":"address","indexed":true,"internalType":"address"},{"name":"approved","type":"bool","indexed":false,"internalType":"bool"}],"anonymous":false},{"type":"event","name":"BurnActiveSet","inputs":[{"name":"changedBy","type":"address","indexed":true,"internalType":"address"},{"name":"burnActive","type":"bool","indexed":false,"internalType":"bool"}],"anonymous":false},{"type":"event","name":"ConsecutiveTransfer","inputs":[{"name":"fromTokenId","type":"uint256","indexed":true,"internalType":"uint256"},{"name":"toTokenId","type":"uint256","indexed":false,"internalType":"uint256"},{"name":"from","type":"address","indexed":true,"internalType":"address"},{"name":"to","type":"address","indexed":true,"internalType":"address"}],"anonymous":false},{"type":"event","name":"MerkleRootSet","inputs":[{"name":"changedBy","type":"address","indexed":true,"internalType":"address"},{"name":"root","type":"bytes32","indexed":false,"internalType":"bytes32"}],"anonymous":false},{"type":"event","name":"OwnershipTransferred","inputs":[{"name":"previousOwner","type":"address","indexed":true,"internalType":"address"},{"name":"newOwner","type":"address","indexed":true,"internalType":"address"}],"anonymous":false},{"type":"event","name":"RoleAdminChanged","inputs":[{"name":"role","type":"bytes32","indexed":true,"internalType":"bytes32"},{"name":"previousAdminRole","type":"bytes32","indexed":true,"internalType":"bytes32"},{"name":"newAdminRole","type":"bytes32","indexed":true,"internalType":"bytes32"}],"anonymous":false},{"type":"event","name":"RoleGranted","inputs":[{"name":"role","type":"bytes32","indexed":true,"internalType":"bytes32"},{"name":"account","type":"address","indexed":true,"internalType":"address"},{"name":"sender","type":"address","indexed":true,"internalType":"address"}],"anonymous":false},{"type":"event","name":"RoleRevoked","inputs":[{"name":"role","type":"bytes32","indexed":true,"internalType":"bytes32"},{"name":"account","type":"address","indexed":true,"internalType":"address"},{"name":"sender","type":"address","indexed":true,"internalType":"address"}],"anonymous":false},{"type":"event","name":"SupplyLimitSet","inputs":[{"name":"changedBy","type":"address","indexed":true,"internalType":"address"},{"name":"supplyLimit","type":"uint256","indexed":false,"internalType":"uint256"}],"anonymous":false},{"type":"event","name":"Transfer","inputs":[{"name":"from","type":"address","indexed":true,"internalType":"address"},{"name":"to","type":"address","indexed":true,"internalType":"address"},{"name":"tokenId","type":"uint256","indexed":true,"internalType":"uint256"}],"anonymous":false},{"type":"event","name":"UriPrefixSet","inputs":[{"name":"changedBy","type":"address","indexed":true,"internalType":"address"},{"name":"urlPrefix","type":"string","indexed":false,"internalType":"string"}],"anonymous":false},{"type":"error","name":"AccessControlBadConfirmation","inputs":[]},{"type":"error","name":"AccessControlUnauthorizedAccount","inputs":[{"name":"account","type":"address","internalType":"address"},{"name":"neededRole","type":"bytes32","internalType":"bytes32"}]},{"type":"error","name":"ApprovalCallerNotOwnerNorApproved","inputs":[]},{"type":"error","name":"ApprovalQueryForNonexistentToken","inputs":[]},{"type":"error","name":"BalanceQueryForZeroAddress","inputs":[]},{"type":"error","name":"BurnNotActive","inputs":[]},{"type":"error","name":"MintERC2309QuantityExceedsLimit","inputs":[]},{"type":"error","name":"MintToZeroAddress","inputs":[]},{"type":"error","name":"MintZeroQuantity","inputs":[]},{"type":"error","name":"NotOwner","inputs":[]},{"type":"error","name":"OwnableInvalidOwner","inputs":[{"name":"owner","type":"address","internalType":"address"}]},{"type":"error","name":"OwnableUnauthorizedAccount","inputs":[{"name":"account","type":"address","internalType":"address"}]},{"type":"error","name":"OwnerQueryForNonexistentToken","inputs":[]},{"type":"error","name":"OwnershipNotInitializedForExtraData","inputs":[]},{"type":"error","name":"TransferCallerNotOwnerNorApproved","inputs":[]},{"type":"error","name":"TransferFromIncorrectOwner","inputs":[]},{"type":"error","name":"TransferToNonERC721ReceiverImplementer","inputs":[]},{"type":"error","name":"TransferToZeroAddress","inputs":[]},{"type":"error","name":"URIQueryForNonexistentToken","inputs":[]}],"bytecode":{"object":"0x60c06040527ff0887ba65ee2024ea881d91b74c2450ef19e1557f03bed3ea9f16b037cbe2dc96080527f539440820030c4994db4e31b6b800deafd503688728f932addfe7a410515c14c60a0523480156200005957600080fd5b50604051620025f2380380620025f28339810160408190526200007c9162000245565b336040518060400160405280600b81526020016a119a5cda10d85ad953919560aa1b8152506040518060400160405280600381526020016246434b60e81b8152508160029081620000ce919062000311565b506003620000dd828262000311565b50600160005550506001600160a01b0381166200011457604051631e4fbdf760e01b81526000600482015260240160405180910390fd5b6200011f8162000140565b50600a829055600b8190556200013760003362000192565b505050620003dd565b600880546001600160a01b038381166001600160a01b0319831681179093556040519116919082907f8be0079c531659141344cd1fd0a4f28419497f9722a3daafe3b4186f6b6457e090600090a35050565b60008281526009602090815260408083206001600160a01b038516845290915281205460ff166200023b5760008381526009602090815260408083206001600160a01b03861684529091529020805460ff19166001179055620001f23390565b6001600160a01b0316826001600160a01b0316847f2f8788117e7eff1d82e926ec794901d17c78024a50270940304540a733656f0d60405160405180910390a45060016200023f565b5060005b92915050565b600080604083850312156200025957600080fd5b505080516020909101519092909150565b634e487b7160e01b600052604160045260246000fd5b600181811c908216806200029557607f821691505b602082108103620002b657634e487b7160e01b600052602260045260246000fd5b50919050565b601f8211156200030c576000816000526020600020601f850160051c81016020861015620002e75750805b601f850160051c820191505b818110156200030857828155600101620002f3565b5050505b505050565b81516001600160401b038111156200032d576200032d6200026a565b62000345816200033e845462000280565b84620002bc565b602080601f8311600181146200037d5760008415620003645750858301515b600019600386901b1c1916600185901b17855562000308565b600085815260208120601f198616915b82811015620003ae578886015182559484019460019091019084016200038d565b5085821015620003cd5787850151600019600388901b60f8161c191681555b5050505050600190811b01905550565b60805160a0516121e162000411600039600081816106f0015261090401526000818161069c0152610c4c01526121e16000f3fe60806040526004361061023b5760003560e01c806370a082311161012e578063a22cb465116100ab578063d53913931161006f578063d53913931461068a578063d547741f146106be578063e63ab1e9146106de578063e985e9c514610712578063f2fde38b1461075b57600080fd5b8063a22cb465146105fe578063a2309ff81461061e578063b88d4fde14610637578063bd55cf0d1461064a578063c87b56dd1461066a57600080fd5b8063864ef3e5116100f2578063864ef3e5146105775780638da5cb5b1461059657806391d14854146105b457806395d89b41146105d4578063a217fddf146105e957600080fd5b806370a08231146104e8578063715018a6146105085780637417d6cc1461051d5780637cb64759146105375780637ec4a6591461055757600080fd5b80632f2ff15d116101bc5780634e7aa674116101805780634e7aa67414610453578063537924ef1461047357806362b99ad4146104935780636352211e146104a85780636f8b44b0146104c857600080fd5b80632f2ff15d1461039a57806336568abe146103ba57806338e21cce146103da57806342842e0e1461042057806342966c681461043357600080fd5b806319d1997a1161020357806319d1997a1461030b57806319f095831461032157806323b872dd14610341578063248a9ca3146103545780632eb4a7ab1461038457600080fd5b806301ffc9a71461024057806306fdde0314610275578063081812fc14610297578063095ea7b3146102cf57806318160ddd146102e4575b600080fd5b34801561024c57600080fd5b5061026061025b366004611bb1565b61077b565b60405190151581526020015b60405180910390f35b34801561028157600080fd5b5061028a61078c565b60405161026c9190611c1e565b3480156102a357600080fd5b506102b76102b2366004611c31565b61081e565b6040516001600160a01b03909116815260200161026c565b6102e26102dd366004611c66565b610862565b005b3480156102f057600080fd5b5060015460005403600019015b60405190815260200161026c565b34801561031757600080fd5b506102fd600a5481565b34801561032d57600080fd5b506102e261033c366004611ca0565b610902565b6102e261034f366004611cbb565b6109d6565b34801561036057600080fd5b506102fd61036f366004611c31565b60009081526009602052604090206001015490565b34801561039057600080fd5b506102fd600b5481565b3480156103a657600080fd5b506102e26103b5366004611cf7565b610b67565b3480156103c657600080fd5b506102e26103d5366004611cf7565b610b92565b3480156103e657600080fd5b506102606103f5366004611d23565b6001600160a01b0316600090815260056020526040908190205467ffffffffffffffff911c16151590565b6102e261042e366004611cbb565b610bca565b34801561043f57600080fd5b506102e261044e366004611c31565b610be5565b34801561045f57600080fd5b506102e261046e366004611c66565b610c4a565b34801561047f57600080fd5b506102e261048e366004611d3e565b610d39565b34801561049f57600080fd5b5061028a610ed0565b3480156104b457600080fd5b506102b76104c3366004611c31565b610f5e565b3480156104d457600080fd5b506102e26104e3366004611c31565b610f69565b3480156104f457600080fd5b506102fd610503366004611d23565b611015565b34801561051457600080fd5b506102e2611064565b34801561052957600080fd5b50600c546102609060ff1681565b34801561054357600080fd5b506102e2610552366004611c31565b611078565b34801561056357600080fd5b506102e2610572366004611e3f565b6110d6565b34801561058357600080fd5b50600c5461026090610100900460ff1681565b3480156105a257600080fd5b506008546001600160a01b03166102b7565b3480156105c057600080fd5b506102606105cf366004611cf7565b611143565b3480156105e057600080fd5b5061028a61116e565b3480156105f557600080fd5b506102fd600081565b34801561060a57600080fd5b506102e2610619366004611e88565b61117d565b34801561062a57600080fd5b50600054600019016102fd565b6102e2610645366004611eb2565b6111e9565b34801561065657600080fd5b506102e2610665366004611ca0565b61122d565b34801561067657600080fd5b5061028a610685366004611c31565b61129f565b34801561069657600080fd5b506102fd7f000000000000000000000000000000000000000000000000000000000000000081565b3480156106ca57600080fd5b506102e26106d9366004611cf7565b611306565b3480156106ea57600080fd5b506102fd7f000000000000000000000000000000000000000000000000000000000000000081565b34801561071e57600080fd5b5061026061072d366004611f2e565b6001600160a01b03918216600090815260076020908152604080832093909416825291909152205460ff1690565b34801561076757600080fd5b506102e2610776366004611d23565b61132b565b600061078682611366565b92915050565b60606002805461079b90611f58565b80601f01602080910402602001604051908101604052809291908181526020018280546107c790611f58565b80156108145780601f106107e957610100808354040283529160200191610814565b820191906000526020600020905b8154815290600101906020018083116107f757829003601f168201915b5050505050905090565b60006108298261139b565b610846576040516333d1c03960e21b815260040160405180910390fd5b506000908152600660205260409020546001600160a01b031690565b600061086d82610f5e565b9050336001600160a01b038216146108a657610889813361072d565b6108a6576040516367d9dca160e11b815260040160405180910390fd5b60008281526006602052604080822080546001600160a01b0319166001600160a01b0387811691821790925591518593918516917f8c5be1e5ebec7d5bd14f71427d1e84f3dd0314c0f7b2291e5b200ac8c7c3b92591a4505050565b7f000000000000000000000000000000000000000000000000000000000000000061092e600033611143565b15801561094257506109408133611143565b155b1561098c5760405162461bcd60e51b815260206004820152601560248201527426b4b9b9b4b733903937b6329037b91030b236b4b760591b60448201526064015b60405180910390fd5b600c805460ff191683151590811790915560405190815233907f0b4b103e6f809edb3e5b2edd0998db0367384fa4113392fe42d4ce76fc7d26789060200160405180910390a25050565b60006109e1826113d0565b9050836001600160a01b0316816001600160a01b031614610a145760405162a1148160e81b815260040160405180910390fd5b60008281526006602052604090208054610a408187335b6001600160a01b039081169116811491141790565b610a6b57610a4e863361072d565b610a6b57604051632ce44b5f60e11b815260040160405180910390fd5b6001600160a01b038516610a9257604051633a954ecd60e21b815260040160405180910390fd5b8015610a9d57600082555b6001600160a01b038681166000908152600560205260408082208054600019019055918716808252919020805460010190554260a01b17600160e11b17600085815260046020526040812091909155600160e11b84169003610b2f57600184016000818152600460205260408120549003610b2d576000548114610b2d5760008181526004602052604090208490555b505b83856001600160a01b0316876001600160a01b031660008051602061218c83398151915260405160405180910390a45b505050505050565b600082815260096020526040902060010154610b828161143f565b610b8c8383611449565b50505050565b6001600160a01b0381163314610bbb5760405163334bd91960e11b815260040160405180910390fd5b610bc582826114dd565b505050565b610bc5838383604051806020016040528060008152506111e9565b600c54610100900460ff16610c0d57604051636607f2c960e11b815260040160405180910390fd5b33610c1782610f5e565b6001600160a01b031614610c3e576040516330cd747160e01b815260040160405180910390fd5b610c478161154a565b50565b7f0000000000000000000000000000000000000000000000000000000000000000610c76600033611143565b158015610c8a5750610c888133611143565b155b15610ccf5760405162461bcd60e51b815260206004820152601560248201527426b4b9b9b4b733903937b6329037b91030b236b4b760591b6044820152606401610983565b600a5482610ce06000546000190190565b610cea9190611f92565b1115610d2f5760405162461bcd60e51b815260206004820152601460248201527314dd5c1c1b1e481b1a5b5a5d081c995858da195960621b6044820152606401610983565b610bc58383611555565b600c5460ff16610d8b5760405162461bcd60e51b815260206004820152601a60248201527f416c6c6f77206c697374206d696e74206e6f74206163746976650000000000006044820152606401610983565b336000908152600560205260409081902054901c67ffffffffffffffff1615610deb5760405162461bcd60e51b8152602060048201526012602482015271135a5b9d081b1a5b5a5d081c995858da195960721b6044820152606401610983565b600a546000546000190110610e395760405162461bcd60e51b815260206004820152601460248201527314dd5c1c1b1e481b1a5b5a5d081c995858da195960621b6044820152606401610983565b600b546040516bffffffffffffffffffffffff193360601b166020820152610e7e9184918491906034016040516020818303038152906040528051906020012061156f565b610ec15760405162461bcd60e51b815260206004820152601460248201527324b73b30b634b21036b2b935b63290383937b7b360611b6044820152606401610983565b610ecc336001611555565b5050565b600d8054610edd90611f58565b80601f0160208091040260200160405190810160405280929190818152602001828054610f0990611f58565b8015610f565780601f10610f2b57610100808354040283529160200191610f56565b820191906000526020600020905b815481529060010190602001808311610f3957829003601f168201915b505050505081565b6000610786826113d0565b610f74600033611143565b610f905760405162461bcd60e51b815260040161098390611fb3565b60005460001901811015610fd75760405162461bcd60e51b815260206004820152600e60248201526d496e76616c696420737570706c7960901b6044820152606401610983565b600a81905560405181815233907f2f1ac7412e0c36ff7b73f7c4f474022dfa5d3f1c09e3262f63c9eb4627a9f505906020015b60405180910390a250565b60006001600160a01b03821661103e576040516323d3ad8160e21b815260040160405180910390fd5b506001600160a01b031660009081526005602052604090205467ffffffffffffffff1690565b61106c6115a9565b61107660006115d6565b565b611083600033611143565b61109f5760405162461bcd60e51b815260040161098390611fb3565b600b81905560405181815233907f4ef92811960c6617dd84b673329cb6c4d277e6356640f9025b52373798fd62a49060200161100a565b6110e1600033611143565b6110fd5760405162461bcd60e51b815260040161098390611fb3565b600d6111098282612032565b50336001600160a01b03167f8aed2472df7eda2618a927a1e73256d01e814a5b03b0fff4931cc2774e39b0c68260405161100a9190611c1e565b60009182526009602090815260408084206001600160a01b0393909316845291905290205460ff1690565b60606003805461079b90611f58565b3360008181526007602090815260408083206001600160a01b03871680855290835292819020805460ff191686151590811790915590519081529192917f17307eab39ab6107e8899845ad3d59bd9653f200f220920489ca2b5937696c31910160405180910390a35050565b6111f48484846109d6565b6001600160a01b0383163b15610b8c5761121084848484611628565b610b8c576040516368d2bf6b60e11b815260040160405180910390fd5b611238600033611143565b6112545760405162461bcd60e51b815260040161098390611fb3565b600c80548215156101000261ff001990911617905560405133907fda8236fd9b752f65ed87e7f6aef7d936153f70f09ed9a40cbb68630faff483229061100a90841515815260200190565b60606112aa82611714565b60006112b4611769565b905060008151116112d457604051806020016040528060008152506112ff565b806112de84611778565b6040516020016112ef9291906120f2565b6040516020818303038152906040525b9392505050565b6000828152600960205260409020600101546113218161143f565b610b8c83836114dd565b6113336115a9565b6001600160a01b03811661135d57604051631e4fbdf760e01b815260006004820152602401610983565b610c47816115d6565b60006001600160e01b03198216637965db0b60e01b148061078657506301ffc9a760e01b6001600160e01b0319831614610786565b6000816001111580156113af575060005482105b8015610786575050600090815260046020526040902054600160e01b161590565b60008180600111611426576000548110156114265760008181526004602052604081205490600160e01b82169003611424575b806000036112ff575060001901600081815260046020526040902054611403565b505b604051636f96cda160e11b815260040160405180910390fd5b610c47813361180b565b60006114558383611143565b6114d55760008381526009602090815260408083206001600160a01b03861684529091529020805460ff1916600117905561148d3390565b6001600160a01b0316826001600160a01b0316847f2f8788117e7eff1d82e926ec794901d17c78024a50270940304540a733656f0d60405160405180910390a4506001610786565b506000610786565b60006114e98383611143565b156114d55760008381526009602090815260408083206001600160a01b0386168085529252808320805460ff1916905551339286917ff6391f5c32d9c69d2a47ea670b442974b53935d1edc7fd64eb21e047a839171b9190a4506001610786565b610c47816000611844565b610ecc82826040518060200160405280600081525061197c565b600083156115a1578360051b8501855b803580851160051b9485526020948518526040600020930181811061157f5750505b501492915050565b6008546001600160a01b031633146110765760405163118cdaa760e01b8152336004820152602401610983565b600880546001600160a01b038381166001600160a01b0319831681179093556040519116919082907f8be0079c531659141344cd1fd0a4f28419497f9722a3daafe3b4186f6b6457e090600090a35050565b604051630a85bd0160e11b81526000906001600160a01b0385169063150b7a029061165d903390899088908890600401612131565b6020604051808303816000875af1925050508015611698575060408051601f3d908101601f191682019092526116959181019061216e565b60015b6116f6573d8080156116c6576040519150601f19603f3d011682016040523d82523d6000602084013e6116cb565b606091505b5080516000036116ee576040516368d2bf6b60e11b815260040160405180910390fd5b805181602001fd5b6001600160e01b031916630a85bd0160e11b1490505b949350505050565b61171d8161139b565b610c475760405162461bcd60e51b815260206004820152601960248201527f455243373231206e6f6e206578697374656e7420746f6b656e000000000000006044820152606401610983565b6060600d805461079b90611f58565b60606000611785836119e9565b600101905060008167ffffffffffffffff8111156117a5576117a5611db3565b6040519080825280601f01601f1916602001820160405280156117cf576020820181803683370190505b5090508181016020015b600019016f181899199a1a9b1b9c1cb0b131b232b360811b600a86061a8153600a85049450846117d957509392505050565b6118158282611143565b610ecc5760405163e2517d3f60e01b81526001600160a01b038216600482015260248101839052604401610983565b600061184f836113d0565b90508060008061186d86600090815260066020526040902080549091565b9150915084156118ad57611882818433610a2b565b6118ad57611890833361072d565b6118ad57604051632ce44b5f60e11b815260040160405180910390fd5b80156118b857600082555b6001600160a01b038316600081815260056020526040902080546fffffffffffffffffffffffffffffffff0190554260a01b17600360e01b17600087815260046020526040812091909155600160e11b85169003611946576001860160008181526004602052604081205490036119445760005481146119445760008181526004602052604090208590555b505b60405186906000906001600160a01b0386169060008051602061218c833981519152908390a45050600180548101905550505050565b6119868383611ac1565b6001600160a01b0383163b15610bc5576000548281035b6119b06000868380600101945086611628565b6119cd576040516368d2bf6b60e11b815260040160405180910390fd5b81811061199d5781600054146119e257600080fd5b5050505050565b60008072184f03e93ff9f4daa797ed6e38ed64bf6a1f0160401b8310611a285772184f03e93ff9f4daa797ed6e38ed64bf6a1f0160401b830492506040015b6d04ee2d6d415b85acef81000000008310611a54576d04ee2d6d415b85acef8100000000830492506020015b662386f26fc100008310611a7257662386f26fc10000830492506010015b6305f5e1008310611a8a576305f5e100830492506008015b6127108310611a9e57612710830492506004015b60648310611ab0576064830492506002015b600a83106107865760010192915050565b6000805490829003611ae65760405163b562e8dd60e01b815260040160405180910390fd5b6001600160a01b03831660008181526005602090815260408083208054680100000000000000018802019055848352600490915281206001851460e11b4260a01b1783179055828401908390839060008051602061218c8339815191528180a4600183015b818114611b71578083600060008051602061218c833981519152600080a4600101611b4b565b5081600003611b9257604051622e076360e81b815260040160405180910390fd5b60005550505050565b6001600160e01b031981168114610c4757600080fd5b600060208284031215611bc357600080fd5b81356112ff81611b9b565b60005b83811015611be9578181015183820152602001611bd1565b50506000910152565b60008151808452611c0a816020860160208601611bce565b601f01601f19169290920160200192915050565b6020815260006112ff6020830184611bf2565b600060208284031215611c4357600080fd5b5035919050565b80356001600160a01b0381168114611c6157600080fd5b919050565b60008060408385031215611c7957600080fd5b611c8283611c4a565b946020939093013593505050565b80358015158114611c6157600080fd5b600060208284031215611cb257600080fd5b6112ff82611c90565b600080600060608486031215611cd057600080fd5b611cd984611c4a565b9250611ce760208501611c4a565b9150604084013590509250925092565b60008060408385031215611d0a57600080fd5b82359150611d1a60208401611c4a565b90509250929050565b600060208284031215611d3557600080fd5b6112ff82611c4a565b60008060208385031215611d5157600080fd5b823567ffffffffffffffff80821115611d6957600080fd5b818501915085601f830112611d7d57600080fd5b813581811115611d8c57600080fd5b8660208260051b8501011115611da157600080fd5b60209290920196919550909350505050565b634e487b7160e01b600052604160045260246000fd5b600067ffffffffffffffff80841115611de457611de4611db3565b604051601f8501601f19908116603f01168101908282118183101715611e0c57611e0c611db3565b81604052809350858152868686011115611e2557600080fd5b858560208301376000602087830101525050509392505050565b600060208284031215611e5157600080fd5b813567ffffffffffffffff811115611e6857600080fd5b8201601f81018413611e7957600080fd5b61170c84823560208401611dc9565b60008060408385031215611e9b57600080fd5b611ea483611c4a565b9150611d1a60208401611c90565b60008060008060808587031215611ec857600080fd5b611ed185611c4a565b9350611edf60208601611c4a565b925060408501359150606085013567ffffffffffffffff811115611f0257600080fd5b8501601f81018713611f1357600080fd5b611f2287823560208401611dc9565b91505092959194509250565b60008060408385031215611f4157600080fd5b611f4a83611c4a565b9150611d1a60208401611c4a565b600181811c90821680611f6c57607f821691505b602082108103611f8c57634e487b7160e01b600052602260045260246000fd5b50919050565b8082018082111561078657634e487b7160e01b600052601160045260246000fd5b6020808252601e908201527f4f6e6c792061646d696e2063616e20646f2074686973206f7065726174650000604082015260600190565b601f821115610bc5576000816000526020600020601f850160051c810160208610156120135750805b601f850160051c820191505b81811015610b5f5782815560010161201f565b815167ffffffffffffffff81111561204c5761204c611db3565b6120608161205a8454611f58565b84611fea565b602080601f831160018114612095576000841561207d5750858301515b600019600386901b1c1916600185901b178555610b5f565b600085815260208120601f198616915b828110156120c4578886015182559484019460019091019084016120a5565b50858210156120e25787850151600019600388901b60f8161c191681555b5050505050600190811b01905550565b60008351612104818460208801611bce565b835190830190612118818360208801611bce565b64173539b7b760d91b9101908152600501949350505050565b6001600160a01b038581168252841660208201526040810183905260806060820181905260009061216490830184611bf2565b9695505050505050565b60006020828403121561218057600080fd5b81516112ff81611b9b56feddf252ad1be2c89b69c2b068fc378daa952ba7f163c4a11628f55a4df523b3efa264697066735822122034f982ebb1e65e86d31505496c57a3c4c04e710f9e13c538b31c11a7e157e9ee64736f6c63430008170033","linkReferences":{}},"methodIdentifiers":{"DEFAULT_ADMIN_ROLE()":"a217fddf","MINTER_ROLE()":"d5391393","PAUSER_ROLE()":"e63ab1e9","allowlistMint(bytes32[])":"537924ef","allowlistMintActive()":"7417d6cc","approve(address,uint256)":"095ea7b3","balanceOf(address)":"70a08231","batchMintRemainingTokens(address,uint256)":"4e7aa674","burn(uint256)":"42966c68","burnActive()":"864ef3e5","getApproved(uint256)":"081812fc","getRoleAdmin(bytes32)":"248a9ca3","grantRole(bytes32,address)":"2f2ff15d","hasMinted(address)":"38e21cce","hasRole(bytes32,address)":"91d14854","isApprovedForAll(address,address)":"e985e9c5","merkleRoot()":"2eb4a7ab","name()":"06fdde03","owner()":"8da5cb5b","ownerOf(uint256)":"6352211e","renounceOwnership()":"715018a6","renounceRole(bytes32,address)":"36568abe","revokeRole(bytes32,address)":"d547741f","safeTransferFrom(address,address,uint256)":"42842e0e","safeTransferFrom(address,address,uint256,bytes)":"b88d4fde","setAllowlistMint(bool)":"19f09583","setApprovalForAll(address,bool)":"a22cb465","setBurn(bool)":"bd55cf0d","setMaxSupply(uint256)":"6f8b44b0","setMerkleRoot(bytes32)":"7cb64759","setUriPrefix(string)":"7ec4a659","supplyLimit()":"19d1997a","supportsInterface(bytes4)":"01ffc9a7","symbol()":"95d89b41","tokenURI(uint256)":"c87b56dd","totalMinted()":"a2309ff8","totalSupply()":"18160ddd","transferFrom(address,address,uint256)":"23b872dd","transferOwnership(address)":"f2fde38b","uriPrefix()":"62b99ad4"},"id":47}